{
  "contractName": "Votes",
  "abi": [
    {
      "inputs": [],
      "stateMutability": "nonpayable",
      "type": "constructor"
    },
    {
      "anonymous": false,
      "inputs": [
        {
          "indexed": false,
          "internalType": "address",
          "name": "voter",
          "type": "address"
        },
        {
          "indexed": false,
          "internalType": "string",
          "name": "name",
          "type": "string"
        },
        {
          "indexed": false,
          "internalType": "uint256",
          "name": "votes",
          "type": "uint256"
        }
      ],
      "name": "addVoter",
      "type": "event"
    },
    {
      "inputs": [
        {
          "internalType": "address",
          "name": "",
          "type": "address"
        },
        {
          "internalType": "uint256",
          "name": "",
          "type": "uint256"
        }
      ],
      "name": "votes",
      "outputs": [
        {
          "internalType": "string",
          "name": "name",
          "type": "string"
        },
        {
          "internalType": "uint256",
          "name": "votes",
          "type": "uint256"
        }
      ],
      "stateMutability": "view",
      "type": "function"
    },
    {
      "inputs": [
        {
          "internalType": "string",
          "name": "_name",
          "type": "string"
        }
      ],
      "name": "addVote",
      "outputs": [],
      "stateMutability": "nonpayable",
      "type": "function"
    },
    {
      "inputs": [],
      "name": "incrementVote",
      "outputs": [],
      "stateMutability": "nonpayable",
      "type": "function"
    },
    {
      "inputs": [],
      "name": "getVoter",
      "outputs": [
        {
          "components": [
            {
              "internalType": "string",
              "name": "name",
              "type": "string"
            },
            {
              "internalType": "uint256",
              "name": "votes",
              "type": "uint256"
            }
          ],
          "internalType": "struct Votes.Vote[]",
          "name": "",
          "type": "tuple[]"
        }
      ],
      "stateMutability": "view",
      "type": "function"
    }
  ],
  "bytecode": "0x608060405234801561001057600080fd5b50336000806101000a81548173ffffffffffffffffffffffffffffffffffffffff021916908373ffffffffffffffffffffffffffffffffffffffff160217905550610c60806100606000396000f3fe608060405234801561001057600080fd5b506004361061004c5760003560e01c80630db304c8146100515780632b37f53c1461005b5780639192f1c8146100795780639f2524ee14610095575b600080fd5b6100596100c6565b005b6100636101e0565b604051610070919061077d565b60405180910390f35b610093600480360381019061008e91906108e8565b610339565b005b6100af60048036038101906100aa91906109bb565b610460565b6040516100bd929190610a54565b60405180910390f35b60018060008060009054906101000a900473ffffffffffffffffffffffffffffffffffffffff1673ffffffffffffffffffffffffffffffffffffffff1673ffffffffffffffffffffffffffffffffffffffff16815260200190815260200160002060008154811061013a57610139610a84565b5b9060005260206000209060020201600101546101569190610ae2565b600160008060009054906101000a900473ffffffffffffffffffffffffffffffffffffffff1673ffffffffffffffffffffffffffffffffffffffff1673ffffffffffffffffffffffffffffffffffffffff1681526020019081526020016000206000815481106101c9576101c8610a84565b5b906000526020600020906002020160010181905550565b6060600160008060009054906101000a900473ffffffffffffffffffffffffffffffffffffffff1673ffffffffffffffffffffffffffffffffffffffff1673ffffffffffffffffffffffffffffffffffffffff168152602001908152602001600020805480602002602001604051908101604052809291908181526020016000905b82821015610330578382906000526020600020906002020160405180604001604052908160008201805461029590610b67565b80601f01602080910402602001604051908101604052809291908181526020018280546102c190610b67565b801561030e5780601f106102e35761010080835404028352916020019161030e565b820191906000526020600020905b8154815290600101906020018083116102f157829003601f168201915b5050505050815260200160018201548152505081526020019060010190610262565b50505050905090565b600160008060009054906101000a900473ffffffffffffffffffffffffffffffffffffffff1673ffffffffffffffffffffffffffffffffffffffff1673ffffffffffffffffffffffffffffffffffffffff16815260200190815260200160002060405180604001604052808381526020016000815250908060018154018082558091505060019003906000526020600020906002020160009091909190915060008201518160000190805190602001906103f4929190610529565b506020820151816001015550507f44b3ac03713608a2df863c4989b8e2ad43b723845ead28f15bbf3ad1bc70acce60008054906101000a900473ffffffffffffffffffffffffffffffffffffffff1682600060405161045593929190610bec565b60405180910390a150565b6001602052816000526040600020818154811061047c57600080fd5b9060005260206000209060020201600091509150508060000180546104a090610b67565b80601f01602080910402602001604051908101604052809291908181526020018280546104cc90610b67565b80156105195780601f106104ee57610100808354040283529160200191610519565b820191906000526020600020905b8154815290600101906020018083116104fc57829003601f168201915b5050505050908060010154905082565b82805461053590610b67565b90600052602060002090601f016020900481019282610557576000855561059e565b82601f1061057057805160ff191683800117855561059e565b8280016001018555821561059e579182015b8281111561059d578251825591602001919060010190610582565b5b5090506105ab91906105af565b5090565b5b808211156105c85760008160009055506001016105b0565b5090565b600081519050919050565b600082825260208201905092915050565b6000819050602082019050919050565b600081519050919050565b600082825260208201905092915050565b60005b83811015610632578082015181840152602081019050610617565b83811115610641576000848401525b50505050565b6000601f19601f8301169050919050565b6000610663826105f8565b61066d8185610603565b935061067d818560208601610614565b61068681610647565b840191505092915050565b6000819050919050565b6106a481610691565b82525050565b600060408301600083015184820360008601526106c78282610658565b91505060208301516106dc602086018261069b565b508091505092915050565b60006106f383836106aa565b905092915050565b6000602082019050919050565b6000610713826105cc565b61071d81856105d7565b93508360208202850161072f856105e8565b8060005b8581101561076b578484038952815161074c85826106e7565b9450610757836106fb565b925060208a01995050600181019050610733565b50829750879550505050505092915050565b600060208201905081810360008301526107978184610708565b905092915050565b6000604051905090565b600080fd5b600080fd5b600080fd5b600080fd5b7f4e487b7100000000000000000000000000000000000000000000000000000000600052604160045260246000fd5b6107f582610647565b810181811067ffffffffffffffff82111715610814576108136107bd565b5b80604052505050565b600061082761079f565b905061083382826107ec565b919050565b600067ffffffffffffffff821115610853576108526107bd565b5b61085c82610647565b9050602081019050919050565b82818337600083830152505050565b600061088b61088684610838565b61081d565b9050828152602081018484840111156108a7576108a66107b8565b5b6108b2848285610869565b509392505050565b600082601f8301126108cf576108ce6107b3565b5b81356108df848260208601610878565b91505092915050565b6000602082840312156108fe576108fd6107a9565b5b600082013567ffffffffffffffff81111561091c5761091b6107ae565b5b610928848285016108ba565b91505092915050565b600073ffffffffffffffffffffffffffffffffffffffff82169050919050565b600061095c82610931565b9050919050565b61096c81610951565b811461097757600080fd5b50565b60008135905061098981610963565b92915050565b61099881610691565b81146109a357600080fd5b50565b6000813590506109b58161098f565b92915050565b600080604083850312156109d2576109d16107a9565b5b60006109e08582860161097a565b92505060206109f1858286016109a6565b9150509250929050565b600082825260208201905092915050565b6000610a17826105f8565b610a2181856109fb565b9350610a31818560208601610614565b610a3a81610647565b840191505092915050565b610a4e81610691565b82525050565b60006040820190508181036000830152610a6e8185610a0c565b9050610a7d6020830184610a45565b9392505050565b7f4e487b7100000000000000000000000000000000000000000000000000000000600052603260045260246000fd5b7f4e487b7100000000000000000000000000000000000000000000000000000000600052601160045260246000fd5b6000610aed82610691565b9150610af883610691565b9250827fffffffffffffffffffffffffffffffffffffffffffffffffffffffffffffffff03821115610b2d57610b2c610ab3565b5b828201905092915050565b7f4e487b7100000000000000000000000000000000000000000000000000000000600052602260045260246000fd5b60006002820490506001821680610b7f57607f821691505b602082108103610b9257610b91610b38565b5b50919050565b610ba181610951565b82525050565b6000819050919050565b6000819050919050565b6000610bd6610bd1610bcc84610ba7565b610bb1565b610691565b9050919050565b610be681610bbb565b82525050565b6000606082019050610c016000830186610b98565b8181036020830152610c138185610a0c565b9050610c226040830184610bdd565b94935050505056fea264697066735822122049f70fdcc9720fb8a13cb1bc40ba5b30f0b5518e2fd8dbdbedff6f902df4b29a64736f6c634300080e0033",
  "immutableReferences": {},
  "source": "// SPDX-License-Identifier: GPL-3.0\npragma solidity ^0.8.7;\n\ncontract Votes {\n  address owner;\n  struct Vote {\n    string name;\n    uint votes;\n  }\n\n  mapping(address => Vote[]) public votes;\n\n  event addVoter(address voter, string name, uint votes);\n\n  constructor() {\n    owner = msg.sender;\n  }\n\n  function addVote(string memory _name) public {\n    votes[owner].push(Vote(_name, 0));\n    emit addVoter(owner, _name, 0);\n  }\n\n  function incrementVote() public {\n    votes[owner][0].votes = votes[owner][0].votes + 1;\n  }\n\n  function getVoter() view public returns(Vote[] memory){\n    return votes[owner];\n  }\n  \n}",
  "sourcePath": "/Users/kherincalderon/DApps/defi_app/src/contracts/Votes.sol",
  "compiler": {
    "name": "solc",
    "version": "0.8.14+commit.80d49f37.Emscripten.clang"
  },
  "schemaVersion": "3.4.4",
  "updatedAt": "2022-05-23T08:39:55.071Z",
  "devdoc": {
    "kind": "dev",
    "methods": {},
    "version": 1
  },
  "userdoc": {
    "kind": "user",
    "methods": {},
    "version": 1
  }
}